{
  "_format": "hh-sol-artifact-1",
  "contractName": "Ballot",
  "sourceName": "contracts/Ballot.sol",
  "abi": [
    {
      "inputs": [],
      "stateMutability": "nonpayable",
      "type": "constructor"
    },
    {
      "inputs": [
        {
          "internalType": "bytes32",
          "name": "proposalName",
          "type": "bytes32"
        }
      ],
      "name": "addProposal",
      "outputs": [],
      "stateMutability": "nonpayable",
      "type": "function"
    },
    {
      "inputs": [],
      "name": "chairperson",
      "outputs": [
        {
          "internalType": "address",
          "name": "",
          "type": "address"
        }
      ],
      "stateMutability": "view",
      "type": "function"
    },
    {
      "inputs": [],
      "name": "getProposalCount",
      "outputs": [
        {
          "internalType": "uint256",
          "name": "",
          "type": "uint256"
        }
      ],
      "stateMutability": "view",
      "type": "function"
    },
    {
      "inputs": [],
      "name": "getProposals",
      "outputs": [
        {
          "components": [
            {
              "internalType": "bytes32",
              "name": "name",
              "type": "bytes32"
            },
            {
              "internalType": "uint256",
              "name": "voteCount",
              "type": "uint256"
            }
          ],
          "internalType": "struct Ballot.Proposal[]",
          "name": "",
          "type": "tuple[]"
        }
      ],
      "stateMutability": "view",
      "type": "function"
    },
    {
      "inputs": [
        {
          "internalType": "address",
          "name": "voter",
          "type": "address"
        },
        {
          "internalType": "uint256",
          "name": "proposalIndex",
          "type": "uint256"
        }
      ],
      "name": "hasVoted",
      "outputs": [
        {
          "internalType": "bool",
          "name": "",
          "type": "bool"
        }
      ],
      "stateMutability": "view",
      "type": "function"
    },
    {
      "inputs": [
        {
          "internalType": "uint256",
          "name": "",
          "type": "uint256"
        }
      ],
      "name": "proposals",
      "outputs": [
        {
          "internalType": "bytes32",
          "name": "name",
          "type": "bytes32"
        },
        {
          "internalType": "uint256",
          "name": "voteCount",
          "type": "uint256"
        }
      ],
      "stateMutability": "view",
      "type": "function"
    },
    {
      "inputs": [
        {
          "internalType": "uint256",
          "name": "proposalIndex",
          "type": "uint256"
        }
      ],
      "name": "vote",
      "outputs": [],
      "stateMutability": "nonpayable",
      "type": "function"
    },
    {
      "inputs": [
        {
          "internalType": "address",
          "name": "",
          "type": "address"
        },
        {
          "internalType": "uint256",
          "name": "",
          "type": "uint256"
        }
      ],
      "name": "votes",
      "outputs": [
        {
          "internalType": "bool",
          "name": "",
          "type": "bool"
        }
      ],
      "stateMutability": "view",
      "type": "function"
    }
  ],
  "bytecode": "0x6080604052348015600f57600080fd5b50610a6d8061001f6000396000f3fe608060405234801561001057600080fd5b50600436106100885760003560e01c8063425458251161005b578063425458251461011457806362564c48146101445780639f2524ee14610162578063c08cc02d1461019257610088565b80630121b93f1461008d578063013cf08b146100a957806306efe3b0146100da5780632e4176cf146100f6575b600080fd5b6100a760048036038101906100a29190610588565b6101b0565b005b6100c360048036038101906100be9190610588565b61033d565b6040516100d19291906105dd565b60405180910390f35b6100f460048036038101906100ef9190610632565b610371565b005b6100fe6103cb565b60405161010b91906106a0565b60405180910390f35b61012e600480360381019061012991906106e7565b6103ef565b60405161013b9190610742565b60405180910390f35b61014c61049e565b6040516101599190610859565b60405180910390f35b61017c600480360381019061017791906106e7565b610511565b6040516101899190610742565b60405180910390f35b61019a610540565b6040516101a7919061087b565b60405180910390f35b60018054905081106101f7576040517f08c379a00000000000000000000000000000000000000000000000000000000081526004016101ee906108f3565b60405180910390fd5b600260003373ffffffffffffffffffffffffffffffffffffffff1673ffffffffffffffffffffffffffffffffffffffff168152602001908152602001600020600082815260200190815260200160002060009054906101000a900460ff1615610295576040517f08c379a000000000000000000000000000000000000000000000000000000000815260040161028c90610985565b60405180910390fd5b6001600260003373ffffffffffffffffffffffffffffffffffffffff1673ffffffffffffffffffffffffffffffffffffffff168152602001908152602001600020600083815260200190815260200160002060006101000a81548160ff0219169083151502179055506001808281548110610313576103126109a5565b5b906000526020600020906002020160010160008282546103339190610a03565b9250508190555050565b6001818154811061034d57600080fd5b90600052602060002090600202016000915090508060000154908060010154905082565b60016040518060400160405280838152602001600081525090806001815401808255809150506001900390600052602060002090600202016000909190919091506000820151816000015560208201518160010155505050565b60008054906101000a900473ffffffffffffffffffffffffffffffffffffffff1681565b60006001805490508210610438576040517f08c379a000000000000000000000000000000000000000000000000000000000815260040161042f906108f3565b60405180910390fd5b600260008473ffffffffffffffffffffffffffffffffffffffff1673ffffffffffffffffffffffffffffffffffffffff168152602001908152602001600020600083815260200190815260200160002060009054906101000a900460ff16905092915050565b60606001805480602002602001604051908101604052809291908181526020016000905b82821015610508578382906000526020600020906002020160405180604001604052908160008201548152602001600182015481525050815260200190600101906104c2565b50505050905090565b60026020528160005260406000206020528060005260406000206000915091509054906101000a900460ff1681565b6000600180549050905090565b600080fd5b6000819050919050565b61056581610552565b811461057057600080fd5b50565b6000813590506105828161055c565b92915050565b60006020828403121561059e5761059d61054d565b5b60006105ac84828501610573565b91505092915050565b6000819050919050565b6105c8816105b5565b82525050565b6105d781610552565b82525050565b60006040820190506105f260008301856105bf565b6105ff60208301846105ce565b9392505050565b61060f816105b5565b811461061a57600080fd5b50565b60008135905061062c81610606565b92915050565b6000602082840312156106485761064761054d565b5b60006106568482850161061d565b91505092915050565b600073ffffffffffffffffffffffffffffffffffffffff82169050919050565b600061068a8261065f565b9050919050565b61069a8161067f565b82525050565b60006020820190506106b56000830184610691565b92915050565b6106c48161067f565b81146106cf57600080fd5b50565b6000813590506106e1816106bb565b92915050565b600080604083850312156106fe576106fd61054d565b5b600061070c858286016106d2565b925050602061071d85828601610573565b9150509250929050565b60008115159050919050565b61073c81610727565b82525050565b60006020820190506107576000830184610733565b92915050565b600081519050919050565b600082825260208201905092915050565b6000819050602082019050919050565b610792816105b5565b82525050565b6107a181610552565b82525050565b6040820160008201516107bd6000850182610789565b5060208201516107d06020850182610798565b50505050565b60006107e283836107a7565b60408301905092915050565b6000602082019050919050565b60006108068261075d565b6108108185610768565b935061081b83610779565b8060005b8381101561084c57815161083388826107d6565b975061083e836107ee565b92505060018101905061081f565b5085935050505092915050565b6000602082019050818103600083015261087381846107fb565b905092915050565b600060208201905061089060008301846105ce565b92915050565b600082825260208201905092915050565b7f50726f706f73616c20696e646578206f7574206f6620626f756e64732e000000600082015250565b60006108dd601d83610896565b91506108e8826108a7565b602082019050919050565b6000602082019050818103600083015261090c816108d0565b9050919050565b7f596f75206861766520616c726561647920766f74656420666f7220746869732060008201527f70726f706f73616c2e0000000000000000000000000000000000000000000000602082015250565b600061096f602983610896565b915061097a82610913565b604082019050919050565b6000602082019050818103600083015261099e81610962565b9050919050565b7f4e487b7100000000000000000000000000000000000000000000000000000000600052603260045260246000fd5b7f4e487b7100000000000000000000000000000000000000000000000000000000600052601160045260246000fd5b6000610a0e82610552565b9150610a1983610552565b9250828201905080821115610a3157610a306109d4565b5b9291505056fea26469706673582212203b452b176a8a00fe58a4bbd6c4b1e3de823e8144296218d93ce0bda2f0e69bde64736f6c634300081c0033",
  "linkReferences": {},
  "deployedLinkReferences": {}
}